:1000000083C100009DC100009BC1000099C1000098
:1000100097C1000095C1000093C1000091C100008C
:100020008FC100008DC100008BC1000089C100009C
:1000300087C1000085C1000083C1000081C10000AC
:100040007FC100007DC100007BC1000079C10000BC
:1000500077C1000075C1000073C1000071C10000CC
:100060006FC100006DC10000AE2000B0C80010409C
:10007000813FA1A6A83FA4D300D5F0D922DA12DB94
:10008000208D14BC5F9C60A4618462B6639664B0EA
:10009000659F66B567FFFF000000000000000000DC
:1000A0002F000000000700070000147F147F1400D9
:1000B000242A7F2A1200626408132300364955223D
:1000C0005000000503000000001C22410000004118
:1000D000221C000014083E08140008083E0808000E
:1000E0000000A06000000808080808000060600028
:1000F00000002010080402003E5149453E00004225
:100100007F4000004261514946002141454B31008A
:100110001814127F10002745454539003C4A4949CB
:100120003000017109050300364949493600064986
:1001300049291E0000363600000000563600000037
:100140000814224100001414141414000041221455
:100150000800020151090600324959513E007C1243
:1001600011127C007F49494936003E41414122003D
:100170007F4141221C007F49494941007F0909090B
:1001800001003E4149497A007F0808087F0000418C
:100190007F4100002040413F01007F0814224100C0
:1001A0007F40404040007F020C027F007F04081027
:1001B0007F003E4141413E007F09090906003E4162
:1001C00051215E007F0919294600464949493100FD
:1001D00001017F0101003F4040403F001F204020BF
:1001E0001F003F4038403F006314081463000708B5
:1001F00070080700615149454300007F41410000FC
:10020000552A552A55000041417F00000402010291
:10021000040040404040400000010204000020541F
:10022000545478007F484444380038444444200003
:10023000384444487F00385454541800087E09015B
:10024000020018A4A4A47C007F08040478000044E1
:100250007D4000004080847D00007F102844000025
:1002600000417F4000007C04180478007C080404EE
:100270007800384444443800FC242424180018240E
:100280002418FC007C08040408004854545420003E
:10029000043F444020003C4040207C001C20402083
:1002A0001C003C4030403C004428102844001CA066
:1002B000A0A07C004464544C440000087741000036
:1002C00000006300000000417708000008040808EF
:1002D00004003A4040207A003D4040403D00215417
:1002E000545479007D1211127D0039444444390080
:1002F0003D4242423D000205020000007E01495598
:1003000073007C1010081C0011241FBECFEFD8E032
:10031000DEBFCDBF12E0A0E0B1E0EAEDF9E102C03E
:1003200005900D92A432B107D9F724E0A4E2B2E01F
:1003300001C01D92A93DB207E1F746D50C94EB0C24
:100340005FCE0895519A50981092C50089E180932C
:10035000C400E0ECF0E080818D7F8083E1ECF0E090
:1003600080818860808380818061808386E0809343
:10037000C20080818068808308958091C000881FBA
:100380008827881F08958091C00085FFFCCF609367
:10039000C60008950F931F93CF93DF938C01EB0159
:1003A0006991662319F0C801EEDFFACFDF91CF9192
:1003B0001F910F910895CF93DF93D82FC92FEADFB4
:1003C0006DE08D2F9C2FDFDF6AE08D2F9C2FDF915A
:1003D000CF91D9CF0F931F93CF93DF938B01C42F6E
:1003E000D0E0AE0170E060E0C801E1D7F80190E034
:1003F00080E08C179D0758F42091C00027FFFCCFA8
:100400002091C6002193222311F00196F2CFDF91B3
:10041000CF911F910F9108958091C00087FF03C075
:100420008091C600F9CF0895FC01118210820895D1
:10043000FC01DC01AE51BF4F83818C931296848105
:100440008F708C93858111968C931196282F30E0B4
:1004500095E0359527959A95E1F72C93E951FF4F53
:100460008F7180830895CF93DF93EC01E881F98148
:1004700081918A83DE01139683E001900D928A9523
:10048000E1F7CE01D5DFFE01E851FF4F84E1DF0146
:100490001D928A95E9F7DE01A951BF4F8C9130E09A
:1004A00020E0482F50E02417350754F4A881B98183
:1004B000A20FB31F14969C9191932F5F3F4FF3CFE0
:1004C00098ECFE01E450FF4FDF011D929A95E9F789
:1004D000DE01AE51BF4F2C912550281B8C5F50E0A0
:1004E00040E030E090E0421753075CF4A881B98106
:1004F000A40FB51FA80FB91F6C9161934F5F5F4F99
:10050000F2CFDF91CF910895FC0171836083ABCF6F
:10051000CF93DF93FC01DB0130E020E050E040E0CE
:100520004A175B0739F1322723273227C081D1814F
:10053000C40FD51F88812827C90164E09595879548
:100540006A95E1F78F70992728273927C901982FD5
:1005500088279295907F822793279C01C5E0220FE0
:10056000331FCA95E1F7207E3F71282739274F5F57
:100570005F4FD6CF81E0232B09F080E0DF91CF9150
:100580000895FC01E60FF11DE851FF4F9081892F7E
:1005900082958695869583709F730895AF92BF92DA
:1005A000CF92DF92EF92FF920F931F93CF93DF933F
:1005B0006C0110E000E07C0187EEE80EF11C8AE19E
:1005C000B82E98E1A92EF7018081181768F5612FE0
:1005D000C601D7DF1B9DE0011124C053DC4F888387
:1005E000612FC601CEDF9983DE011296FD018A2DAF
:1005F00011928A95E9F7492F50E0992379F0E02F7D
:10060000F0E0E450FF4FEC0DFD1D30E020E0819163
:100610008D932F5F3F4F24173507CCF3C40FD51FA1
:100620001B82090F1F5FCFCF80ED93E0DF91CF9149
:100630001F910F91FF90EF90DF90CF90BF90AF9000
:1006400008956F927F928F929F92AF92BF92CF92B6
:10065000DF92EF92FF920F931F93CF93DF934C01A2
:1006600066E071E084E292E0A9D6712C540187EE35
:10067000A80EB11C84E2C82E82E0D82E0BE011E057
:10068000CEE0D1E096E4E92EF12CF50180817816D8
:1006900060F5672DC40175DF692E672DC40171DF18
:1006A000F60101900020E9F79F01255232401F9288
:1006B0006F921F928F931F927F921F930F93DF93DE
:1006C000CF93C701821B930B9F938F932C5D3D4F5C
:1006D0003F932F939DD67394EDB7FEB73E960FB61A
:1006E000F894FEBF0FBEEDBFD0CF940124503F4F12
:1006F0003F932F9324E232E03F932F931F928F93E7
:10070000F401EC51FF4F80811F928F9332968081CC
:100710001F928F93349780811F928F9389E191E08C
:100720009F938F9381E08F9386E68F938AE692E082
:100730009F938F936DD68DB79EB742960FB6F89460
:100740009EBF0FBE8DBF8AE692E0DF91CF911F91D1
:100750000F91FF90EF90DF90CF90BF90AF909F9060
:100760008F907F906F900895FC0180E8808380E4F3
:10077000818381E082830895FF920F931F93CF932B
:10078000DF93F62E172F042F88E7BBD280E0E1D24B
:10079000CF2DD12F0C0F1D2F111DC017D10719F010
:1007A0008991D7D2FACFDF91CF911F910F91FF900E
:1007B000CCC2EF92FF920F931F93CF93DF937B01F5
:1007C0008A0188E79ED280E4C4D2E7010E0D1F1D86
:1007D000C017D10719F08991BCD2FACFDF91CF9120
:1007E0001F910F91FF90EF90B0C2CF93DF9300D095
:1007F00000D01F92CDB7DEB7FC01262F808190E09C
:1008000066E070E09BD42617170609F030F5818169
:10081000869586958695481700F5822F880F820F5A
:10082000880F8383448391E29A839FE79D83405599
:10083000498392E0980F9F709B8390E0029624E09A
:10084000959587952A95E1F78F70805F8C8345E0B9
:10085000BE016F5F7F4FCF018FDF0F900F900F9022
:100860000F900F90DF91CF910895FC018281089540
:10087000FC01628308958F929F92AF92BF92DF92A4
:10088000EF92FF920F931F93CF93DF93CDB7DEB715
:100890008C01D62E8DB69EB6FC01E080F12C8DB772
:1008A0009EB78E199F090FB6F8949EBF0FBE8DBFDD
:1008B000EDB7FEB731965F01A70170E060E0CF01B0
:1008C00076D54D2D60E0C80190DFA701B501C801C4
:1008D00070DFF8018281823049F441E04D0D60E023
:1008E000C80183DFA701B501C80163DF0FB6F89423
:1008F0009EBE0FBE8DBEDF91CF911F910F91FF90D5
:10090000EF90DF90BF90AF909F908F90089540E060
:1009100060E06BCF8F929F92AF92BF92DF92EF9287
:10092000FF920F931F93CF93DF93CDB7DEB78C0168
:100930008DB69EB6FC01E080F12C8DB79EB78E1966
:100940009F090FB6F8949EBF0FBE8DBFEDB7FEB7DF
:1009500031965F01A70170E060E0CF0128D5D12C6E
:10096000F8018181869586958695D81650F44D2D8F
:1009700060E0C8013ADFA701B501C8011ADFD394CE
:10098000EFCFC801C4DF0FB6F8949EBE0FBE8DBE78
:10099000DF91CF911F910F91FF90EF90DF90BF906B
:1009A000AF909F908F9008950F931F93CF93DF93F5
:1009B000CDB7DEB76C970FB6F894DEBF0FBECDBFD4
:1009C0008C0196D1E8E6F0E0DE011196CE014C965E
:1009D000BD0124912D933196A817B907D1F78FEA5D
:1009E0008C8F4CE1C801C8DEC80194DF6C960FB64D
:1009F000F894DEBF0FBECDBFDF91CF911F910F9155
:100A000008958F929F92AF92BF92CF92DF92EF9212
:100A1000FF920F931F93CF93DF93CDB7DEB761970C
:100A20000FB6F894DEBF0FBECDBF8C01693009F45C
:100A300015C108F0E5C0683009F4ECC0F801238165
:100A400080818650990B2817190608F0F4C060328F
:100A500008F4F1C06052E4E8F0E0E4916E17F0F0C1
:100A600020E0E62EF12C822F90E0880F991FBC0128
:100A70006C577F4FFB0134913F3F09F4DCC0FC0110
:100A8000ED57FF4FE491E052FF0BEE15FF0509F023
:100A900005C1FB0164916F3F09F4CDC0F6E06F9F83
:100AA000B0011124F80182819B0129563F4F790141
:100AB000823009F0F5C0CE0101966C01DC0150E0F6
:100AC00040E061E070E011961C921E92F701E40F85
:100AD000F51FE49190E080E08E2E912C9401082E79
:100AE00002C0359527950A94E2F720FF1DC05C01EE
:100AF000AA0CBB1CFB010A2C02C0EE0FFF1F0A94BC
:100B0000E2F72D913C9111972E2B3F2BEFEFAE1A70
:100B1000BE0AFB0102C0EE0FFF1FAA94E2F72E2BC4
:100B20003F2B11963C932E93019688309105B1F698
:100B30004F5F5F4F12964630510529F688E7E1D0A6
:100B400080E407D14601FCE08F0E911C7601F7018D
:100B5000B080F2E0EF0EF11C8B2DFBD08B2DF9D085
:100B60008E149F04A1F7F1D081E28E878FE7898BE5
:100B7000F80184818F548D87838192E0980F9F7054
:100B80009F8790E0029634E0959587953A95E1F736
:100B90008F70805F888B45E0BE01635F7F4FC80127
:100BA000EBDD88E7AED080E4D4D0F601B180F2E08E
:100BB000CF0ED11C8B2DCDD08B2DCBD0EC14FD04C2
:100BC000A1F7C3D0F801848180558D8783819EE091
:100BD000980F9F709F8790E00E9624E096958795DA
:100BE0002A95E1F78F70805F888B45E0BE01635FD7
:100BF0007F4FC801C1DDF8018381845F83831BC0FF
:100C00006A3009F43CC06D3009F018CFFC01448112
:100C100060E00FC0FC0163818281681B4481C801D0
:100C2000E4DD60E2C801EDDEF80163818281681BCA
:100C30004481C801DADD61960FB6F894DEBF0FBEBD
:100C4000CDBFDF91CF911F910F91FF90EF90DF907B
:100C5000CF90BF90AF909F908F900895FC0132810C
:100C6000330F330F2381230F808166E05BD24481F1
:100C7000982F931B682F2917E4F6622FDACFFC0117
:100C8000448180818695869586958150990B481779
:100C900019068CF68281480F6381CBCF2F5FE3CE9C
:100CA00088E72FD080E455D0D12CC12CF701EC0D72
:100CB000FD1D84914ED0FFEFCF1ADF0A26E0C21649
:100CC000D104A1F742D0F80183818A5F97CF0F93B7
:100CD0001F93CF93DF938C01EB016991662319F089
:100CE000C8018FDEFACFDF91CF911F910F91089548
:100CF0001092B90088E48093B80084E08093BC002F
:100D0000089594EA9093BC0020E431E09091BC00F7
:100D100097FF0CC08093BB0084E88093BC0080E404
:100D200091E02091BC0027FF0AC0089521503109AD
:100D300069F78091D40481608093D4040895019769
:100D400081F78091D4048260F7CF84E98093BC005E
:100D500008958093BB0084E88093BC0080E491E018
:100D60002091BC0027FD08950197D1F78091D4040C
:100D700084608093D4040895CF93DF93FC01680FBF
:100D8000791F842F90E02FEFE617F707C8F4EF01E3
:100D90002196992349F0A82FB52F80818D938A2F12
:100DA0005B2F9150FE01F0CF2F3F29F0A82FB52FD8
:100DB0001D928A2F5B2F9081992311F0292FF1CF5B
:100DC000841BDF91CF910895CDB7DEB7C25DD340CC
:100DD0000FB6F894DEBF0FBECDBFFE01EC53FD4F42
:100DE000119211928DEFDF011D928A95E9F7CE01E4
:100DF0008E529C4FA6DACE018E529C4FA3DACE01C2
:100E0000019612DBCE0183539C4FAEDCCE0183539F
:100E10009C4FCADD42E062E0CE0183539C4FE5DC8B
:100E200061E771E0CE0183539C4F51DF61E771E0D0
:100E3000CE018E529C4FBFDABFEFE3ECF9E0B15028
:100E4000E040F040E1F700C0000067EB71E0CE0148
:100E500083539C4F3CDF2FEF83EC99E0215080407F
:100E60009040E1F700C0000067EB71E0CE018353D2
:100E70009C4F2DDFAFEFB3ECE9E0A150B040E04074
:100E8000E1F700C0000067EB71E0CE0183539C4F97
:100E90001EDFFFEF23EC89E0F15020408040E1F7B6
:100EA00000C00000CE0183539C4F34DD69E771E040
:100EB000CE0183539C4F0BDF69E771E0CE018E5268
:100EC0009C4F79DA8DEF782E95ECA92EBB24B39444
:100ED000AC0EBD1E92E0A90EB11C2AE1622ECE011D
:100EE0008E529C4F4ADA8823D1F32FEF30E04FEF38
:100EF000BE016C537D4FCE018E529C4F6BDACB53AB
:100F0000DE4F19821882C55CD140D501E72D1D92B4
:100F1000EA95E9F7E82EF12CAE014B535E4FB7018D
:100F2000CE018C539D4F28DF082FF2E0EF1AF10815
:100F3000CA53DE4F8881C65CD1408E151F0409F06C
:100F4000D9C06DE871E0CE018E529C4F23DA10E0DB
:100F50004AE0BE016D537C4FC80137D2BC01CE01BF
:100F60008E529C4F28DACE0183539C4F7EDCF82EA4
:100F7000BE016B537E4FCE010196C6DAB801CE0199
:100F80000196C6DA882309F497C066E072E0CE01C4
:100F90008E529C4F10DACE01019653DBBC01CE017C
:100FA0008E529C4F08DA8B816BEC71E08E3F31F0F2
:100FB00069EB71E08F3F11F06CED71E0CE018E5264
:100FC0009C4FF9D9CB51DF4F8881C55ED04081114C
:100FD0000BC06CEE71E0CE018E529C4FECD961E0FB
:100FE000CE0183539C4F44DCCB51DF4F8881C55EDB
:100FF000D040813059F468EF71E0CE018E529C4FA1
:10100000DAD962E0CE0183539C4F32DCCE018353A8
:101010009C4F2BDC8F1521F0CE0183539C4F7ADC43
:10102000CE010196BBDA7C0110E0C851DF4F888108
:10103000C85ED040181708F056C06701169DC00C56
:10104000D11C1124460122E0820E911CB401CE0174
:101050008E529C4FB0D9D6018C918230E1F4CE01F2
:1010600083539C4F02DC819F602D1124CE0183535A
:101070009C4F01DCCE0183539C4FF7DB819F402DB9
:10108000112460E0CE0183539C4FAFDBB401CE014D
:1010900083539C4F1CDEF6018081813059F4CE01D0
:1010A00083539C4FE2DB819F602D1124CE0183533B
:1010B0009C4FE1DB1F5FB9CF67E971E0CE018E5233
:1010C0009C4F79D9CE0183539C4F24DC42E062E0EF
:1010D000CE0183539C4F89DB68EA71E0CE018353D4
:1010E0009C4FF5DDFCCEC701D9D0CE018E529C4F6E
:1010F00093D9F5CECE0183539C4F0CDC64E072E0B3
:10110000CE0183539C4FE3DD62E172E0CE018E524B
:101110009C4F51D9BE016B537E4FCE018E529C4FD6
:101120004AD9E3CF991B79E004C0991F961708F0BC
:10113000961B881F7A95C9F780950895AA1BBB1B3B
:1011400051E107C0AA1FBB1FA617B70710F0A61BC7
:10115000B70B881F991F5A95A9F780959095BC01E8
:10116000CD0108950F931F93CF93DF9382309105A4
:1011700010F482E090E0E091D704F091D80430E0E0
:1011800020E0B0E0A0E0309799F42115310509F492
:101190004AC0281B390B24303105D8F58A819B8140
:1011A0006115710589F1FB0193838283FE0111C0F2
:1011B000408151810281138148175907E0F0481797
:1011C000590799F4109761F012960C9312971396A1
:1011D0001C933296CF01DF91CF911F910F9108950B
:1011E0000093D7041093D804F4CF2115310551F0A2
:1011F0004217530738F0A901DB019A01BD01DF0155
:10120000F801C1CFEF01F9CF9093D8048093D704B0
:10121000CDCFFE01E20FF31F81939193225031094C
:1012200039832883D7CF2091D5043091D604232B3E
:1012300041F420910201309103013093D6042093B0
:10124000D50420910001309101012115310541F4AF
:101250002DB73EB74091040150910501241B350B79
:10126000E091D504F091D604E217F307A0F42E1B09
:101270003F0B2817390778F0AC014E5F5F4F2417FA
:10128000350748F04E0F5F1F5093D6044093D504A6
:10129000819391939FCFF0E0E0E09CCFCF93DF93D9
:1012A0000097E9F0FC01329713821282A091D704D3
:1012B000B091D804ED0130E020E01097A1F4208136
:1012C0003181820F931F2091D5043091D6042817C5
:1012D000390709F061C0F093D604E093D504DF919B
:1012E000CF910895EA01CE17DF07E8F54A815B81C7
:1012F0009E0141155105B1F7E901FB83EA8349914C
:101300005991C40FD51FEC17FD0761F480819181BD
:101310000296840F951FE9019983888382819381C6
:101320009B838A83F0E0E0E012968D919C91139765
:101330000097B9F52D913C911197CD010296820F3E
:10134000931F2091D5043091D6042817390739F618
:10135000309751F51092D8041092D704B093D60468
:10136000A093D504BCCFD383C28340815181840F25
:10137000951FC817D90761F44E5F5F4F8881998127
:10138000480F591F518340838A819B8193838283B5
:101390002115310509F0B0CFF093D804E093D704BC
:1013A0009ECFFD01DC01C0CF13821282D7CFDC01BA
:1013B00001C06D9341505040E0F70895FB01DC01FE
:1013C00001900D920020E1F70895BB274A3031F4D7
:1013D000992322F4BDE2909581959F4F01C0BB27D0
:1013E000FB015527AA27880F991FAA1FA41710F0E1
:1013F000A41B83955051B9F7A05DAA3308F0A95DED
:10140000A193009779F7B111B1931192CB010EC25C
:10141000AEE0B0E0EDE0FAE0B5C20D891E898F893B
:10142000988D26E02C831A83098397FF02C080E001
:1014300090E801979E838D83AE01455E5F4F698D75
:101440007A8DCE01019611D04D815E8157FD0AC083
:101450002F813885421753070CF49A01020F131F8E
:10146000F80110822E96E4E0A9C2ABE0B0E0EAE316
:10147000FAE07AC27C013B018A01FC0117821682E4
:10148000838181FFBAC1CE0101965C01F70193818E
:10149000F30193FD859193FF81913F01882309F426
:1014A00049C1853239F493FD859193FF81913F01C4
:1014B000853221F4B70190E0C9D1E8CF912C212CDD
:1014C000312CFFE1F31538F08B3211F190F48032BA
:1014D00009F1833229F137FC3CC020ED280F2A3076
:1014E00050F536FE20C08AE0989E200D1124922EE1
:1014F00006C08D3291F0803371F7689430F8F301B3
:1015000093FD859193FF81913F018111DACF21C035
:10151000689431F8689432F8F2CF689433F8EFCFDA
:10152000689434F8ECCFEAE02E9E200D1124222E90
:10153000689435F8E4CF8E3229F436FCFBC0689409
:1015400036F8DDCF8C3619F4689437F8D8CF883662
:10155000B1F2982F9F7D95549330D8F0833691F156
:101560008337B1F1833509F05EC02801F2E04F0EF8
:10157000511CF801C080D180692D70E036FC02C09A
:101580006FEF7FEFC6013CD14C01689437F88201C0
:101590000AC00C5F1F4FFFE3F98388248394912CCA
:1015A0006501E89437F833FE2AC0522C8114910467
:1015B00059F5552009F46ACFB70180E290E046D191
:1015C0005A94F7CFF801808189830E5F1F4FE5CFD2
:1015D0002801F2E04F0E511CF801C080D180692D26
:1015E00070E036FC02C06FEF7FEFC60114D14C01F2
:1015F0008201D7CFB70180E290E028D12A94281445
:10160000190409F0B8F7D1CFF60137FC859137FE00
:1016100081916F01B70190E019D151105A94F1E016
:101620008F1A9108C3CF843619F0893609F073C038
:10163000F80137FE67C060817181828193810C5F00
:101640001F4FF32DFF763F2E97FF09C09095809591
:10165000709561957F4F8F4F9F4F689437F82AE0C0
:1016600030E0A50123D1C82ECA188C2C432C36FE9D
:101670000CC0E89440F8C91440F434FE05C032FCB4
:1016800003C0F32DFE7E4F2E892C44FE90C0FE0138
:10169000EC0DF11D8081803309F082C0242D297E5C
:1016A000422E842D8870582E43FC8FC040FE89C086
:1016B0009C2C821418F42C0C922C981844FE8BC08D
:1016C000B70180E390E0C2D042FE08C088E790E016
:1016D00041FE02C088E590E0B701B8D0C91408F413
:1016E00086C0CA94D12C9FEFC91AD90ACA0CDB1C38
:1016F000F60182916F01B70190E0A8D0AC14BD044F
:10170000B9F757CF60817181072E000C880B990BB8
:101710000E5F1F4F96CFD32CE894D4F82AE030E028
:10172000853731F1232D297FD22E8F36F9F040F401
:101730008835A1F0F701868197812B96E2E130C1CF
:10174000803749F08837B1F7D4FE02C06894D2F8E8
:1017500020E130E00DC06894D4F8F6CF34FE03C029
:10176000822F8660D82E20E132E002C028E030E0EF
:10177000F801D7FE0EC060817181828193810C5F78
:101780001F4FA50193D0C82ECA183D2CE89437F8F6
:101790006CCF6081718190E080E00E5F1F4FF1CFD0
:1017A00042FC02C083947DCF839483947ACF842DAE
:1017B000867809F476CFF6CFB70180E290E046D084
:1017C00083948214C8F3512C79CF522C5818821468
:1017D00008F474CFF8CF842D867809F47FCF8BE29C
:1017E00041FE80E247FC8DE2B70190E076CFB70181
:1017F00080E390E02BD09A9471CF8FEF9FEF9DCF35
:10180000FC010590615070400110D8F780959095CB
:101810008E0F9F1F0895FC016150704001900110D0
:10182000D8F7809590958E0F9F1F0895DC01FC01DD
:10183000672F71917723E1F7329704C07C916D9304
:1018400070836291AE17BF07C8F308950F931F937B
:10185000CF93DF93182F092FEB018B8181FD09C0F6
:101860001FEF0FEF812F902FDF91CF911F910F91DD
:10187000089582FF14C02E813F818C819D8128179D
:1018800039073CF4E881F981CF0101969983888377
:1018900010838E819F8101969F838E83E3CFE8859D
:1018A000F985812F0995892BA1F3DACFFA01AA27AF
:1018B000283051F1203181F1E8946F936E7F6E5F93
:1018C0007F4F8F4F9F4FAF4FB1E03ED0B4E03CD041
:1018D000670F781F891F9A1FA11D680F791F8A1F24
:1018E000911DA11D6A0F711D811D911DA11D20D08B
:1018F00009F468943F912AE0269F11243019305D45
:101900003193DEF6CF010895462F4770405D419335
:10191000B3E00FD0C9F7F6CF462F4F70405D4A3382
:1019200018F0495D31FD4052419302D0A9F7EACF4A
:10193000B4E0A6959795879577956795BA95C9F779
:1019400000976105710508959B01AC010A2E06946C
:101950005795479537952795BA95C9F7620F731F25
:10196000841F951FA01D08952F923F924F925F9262
:101970006F927F928F929F92AF92BF92CF92DF929F
:10198000EF92FF920F931F93CF93DF93CDB7DEB704
:10199000CA1BDB0B0FB6F894DEBF0FBECDBF099498
:1019A0002A88398848885F846E847D848C849B84EF
:1019B000AA84B984C884DF80EE80FD800C811B81FD
:1019C000AA81B981CE0FD11D0FB6F894DEBF0FBE2C
:0A19D000CDBFED010895F894FFCF9C
:1019DA000000D90420004C696E65000D0A002573C9
:1019EA0025643A25642C2564005061636B65744C48
:1019FA00656E6774683A2025640D0A536F757263C1
:101A0A006549443A2025640D0A44617461436F6E46
:101A1A0074726F6C4D6F64653A2025640D0A4461D7
:101A2A0074614865616465724C656E6774683A20D2
:101A3A0025640D0A25730D0A446174613A202573E1
:101A4A0000626F6F74696E670077616974696E67A7
:101A5A0020666F72207061636B65747300446563FE
:101A6A0053697A653A20006672616D652069732050
:101A7A00696E76616C696400496E76616C6964208E
:101A8A006672616D652E2E2E0070726F63657373B8
:101A9A00696E672073747265616D0070726F636539
:101AAA007373696E6720717565727900756E6B6EF6
:101ABA006F776E20636F6D6D616E64006E6F726D0D
:101ACA00616C206D6F646500646F75626C65206D72
:101ADA006F646500696E76616C6964206672616D17
:101AEA006500696E76616C6964206672616D652055
:041AFA003A28000086
:00000001FF
